:020000040800F2
:10000000D80600209D010008BF17000869160008E7
:10001000BD170008610400083F1A00080000000036
:10002000000000000000000000000000C3170008EE
:100030001505000800000000C1170008C5170008DA
:10004000B7010008B7010008B7010008B7010008B0
:10005000B7010008B7010008B7010008B7010008A0
:10006000B7010008B7010008B7010008B701000890
:10007000B7010008B7010008B7010008B701000880
:10008000B7010008B7010008B7010008B701000870
:10009000B7010008B7010008B7010008B701000860
:1000A000B7010008B7010008B7010008B701000850
:1000B000B7010008A1180008B7010008B70100083F
:1000C000B7010008B7010008B7010008B701000830
:1000D000B7010008B7010008B7010008B701000820
:1000E000B7010008B7010008B7010008B701000810
:1000F000B7010008B7010008B7010008B701000800
:10010000B7010008B7010008B7010008B7010008EF
:10011000B7010008B7010008B7010008B7010008DF
:1001200065040008B7010008B7010008B70100081E
:10013000B7010008B7010008B7010008B7010008BF
:10014000B7010008B7010008B7010008B7010008AF
:10015000B7010008B7010008B7010008B70100089F
:10016000B7010008B7010008B7010008B70100088F
:10017000B7010008B7010008B7010008000000003F
:10018000B7010008B7010008DFF80CD000F07AF8DA
:1001900000480047811A0008D8060020064880471A
:1001A00006480047FEE7FEE7FEE7FEE7FEE7FEE75C
:1001B000FEE7FEE7FEE7FEE74D18000889010008AC
:1001C0002DE9F05F0546002092469B46884606468C
:1001D000814640241BE0284641464746224600F01F
:1001E00041F853465A46C01A914110D31146184659
:1001F000224600F028F82D1A67EB01084F462246E8
:100200000120002100F01FF817EB00094E41201ECD
:10021000A4F10104DFDC484631462A464346BDE8E6
:10022000F09FD2B201E000F8012B491EFBD27047CB
:100230000022F6E710B513460A4604461946FFF7B2
:10024000F0FF204610BD202A04DB203A00FA02F11C
:10025000002070479140C2F1200320FA03F31943B4
:1002600090407047202A04DB203A21FA02F0002156
:10027000704721FA02F3D040C2F1200291400843B6
:1002800019467047064C074D06E0E06840F0010350
:1002900094E8070098471034AC42F6D3FFF778FF94
:1002A0002C1C00084C1C000810B50146806B026C29
:1002B00012F0500F05D0026CD20626D500F0D4F90A
:1002C00010BD016C41F40071016401688A6812F08C
:1002D000405F17D1027EAAB9CA6A12F4700F02D029
:1002E0008A6852050ED44A6822F020024A60016CE6
:1002F00021F480710164016CC90403D4016C41F0E4
:100300000101016400F0AEF910BD806BC26CBDE864
:1003100010400846104710B5806B40210164416CC5
:1003200041F00401416400F09FF910BD10B5806BED
:1003300000F099F910BD0000464910B54A6822F452
:1003400040324A604A6843681A434A6001684A6812
:1003500022F480724A6001684A68036942EA032213
:100360004A6001684A6822F040724A6001684A683F
:1003700083681A434A6001688A6822F400628A60CE
:1003800001688A68C3681A438A60816A6FF0706284
:10039000D14201688A6822F070628A6001688A68C6
:1003A0000CD0836A1A438A6001688A6822F040523E
:1003B0008A6001688A68C36A1A4301E022F04052E9
:1003C0008A6001688A6822F002028A6001688A688D
:1003D000037E42EA43028A6090F8201000290168F7
:1003E0004A680FD042F400624A6001684A6822F409
:1003F00060424A6001684A68174C436A04EB433321
:100400001A4301E022F400624A600168CA6A22F4D9
:100410007002CA620168CA6A838B104C04EB0353F2
:100420001A43CA6201688A6822F400728A6001680D
:100430008A6890F8303042EA43228A6001688A680C
:1004400022F480628A6001688A68406942EA8020FA
:10045000886010BD0023014000E0FFFF0000F0FFB6
:10046000FEE70000014800F00FBA0000340200204F
:1004700001681823CAB2103AB2FBF3F2054B6FF3CE
:100480000901032A9B5CC36500D9091D81650846E3
:1004900070470000141C000810B5014600208B694D
:1004A0008A6A4FF0C07453B1B3F5005F15D072B1D2
:1004B000012A0CD0022A0AD0032A09D104E01AB179
:1004C000012A06D0022A03D1C96AC90100D5012038
:1004D00010BDC96AA142FAD010BD002AF7D0012A86
:1004E000F2D0022AF3D0032AF3D010BD30B504684D
:1004F000256825F480252560046863608368402BA7
:10050000036803D099600068C26030BD9A600068DB
:10051000C16030BD7047704778B50024009490F8F2
:100520003C20012A19D0012280F83C200A680723C8
:100530000568092A13D9EE680A3A02EB4202934091
:100540009E43EE600B788A680A3B03EB43039A40B4
:100550000368DD682A43DA6010E0022078BD2E6966
:1005600002EB420293409E432E610B788A6803EBB4
:1005700043039A4003681D692A431A614A681F238E
:10058000072A13D205686E6B521E02EB820293405B
:100590009E436E630B790A885B1E92B203EB830362
:1005A0009A4003685D6B2A435A6327E005680D2A69
:1005B00012D22E6BD21F02EB820293409E432E6317
:1005C0000B790A88DB1F92B203EB83039A4003681E
:1005D0001D6B2A431A6311E0EE6A0D3A02EB8202A8
:1005E00093409E43EE620B790A880D3B92B203EB77
:1005F00083039A400368DD6A2A43DA62164B056872
:10060000144A9D4206D10D68122D03D1556845F458
:100610008005556005689D4218D10B68102B01D0EC
:10062000112B13D1536843F4000353600968102958
:100630000CD10A490A4A0968B1FBF2F101EB8101C8
:10064000490000E0491E00910029FBD180F83C40A0
:10065000002078BD00230140002001405800002008
:1006600040420F0070477047704770B504004FF06C
:10067000000503D0206C002610B107E0012070BDFA
:10068000204600F01DF8666484F83C60206CC006CB
:1006900010D4206C20F4885040F0020020642046E2
:1006A000FFF74AFE6664206C20F0020040F0010073
:1006B000206400E0012584F83C60284670BD0000FD
:1006C00070B586B0064614216846FFF7B1FD1D4996
:1006D0003068884234D11C480025016841F480719B
:1006E0000160006800F480700590174814380168B4
:1006F00041F0010101600068694600F001000590C9
:10070000402000900320CDE90105104800F032FAA6
:10071000104C0F48C4E900050015A560C4E903505A
:10072000800060618000A0618011C4E90705204657
:10073000656200F079F908B1FFF7EDFEB463A663D6
:1007400006B070BD00200140443802400000024065
:100750001064024034020020F8B50E460021044621
:10076000009190F83C00012807D0012084F83C005B
:1007700020688368DB0702D011E00220F8BD83689F
:1007800043F0010383603748374B0068B0FBF3F058
:1007900000EB400000E0401E00900028FBD12068E4
:1007A0008368DB075CD0236C40F20165AB4343F404
:1007B000807323644068400505D5206C20F4005008
:1007C00040F480502064206CC00404D5606C20F09C
:1007D0000600606400E0616484F83C10A16B24486A
:1007E000224DC863A16B23480864A16B2248C864EA
:1007F00021686FF0220008602068416841F0806144
:1008000041602068816841F48071816021681346ED
:1008100032464C31A06B00F071F968681749C00688
:10082000206806D088421BD1816811F0405F13D048
:1008300016E08842F8D0124A904203D1D1F804233E
:10084000D206F1D00F4A90420AD1D1F8041301F038
:100850001F011029E8D303E0816841F080418160E5
:100860000020F8BD5800002040420F000023014046
:10087000A90200082D03000817030008002001400A
:1008800000210140002201402DE9F84304464FF0C9
:100890000009CDF8009063484FF41651A56D00682B
:1008A000B0FBF1F72E6894F85C10082000FA01F113
:1008B00031420FD021680A6852070BD50A6822F02E
:1008C00004020A6094F85C108840A860606D40F0F3
:1008D0000100606594F85C104FF0010808FA01F01F
:1008E000304208D021684969090604D5A860606DC6
:1008F00040F00200606594F85C10042088403042AB
:1009000008D021680968890704D5A860606D40F0A7
:100910000400606594F85C1010208840304218D0C4
:1009200021680968090714D5A8602068016849038F
:1009300004D50068000308D5A16C07E00168C9056B
:1009400003D4016821F008010160216C09B120463F
:10095000884794F85C1020208840304231D02168CC
:100960000968C9062DD5A86094F8350005282068C7
:10097000016806D0490347D5006800031DD4616CA7
:100980001CE021F0160101602068416921F080011E
:100990004161206C08B9A06C20B12068016821F089
:1009A0000801016094F85C103F208840A86084F83A
:1009B000349084F83580216D1FE0E16B09B1204649
:1009C0008847606D00282BD0606DC00714D00520CB
:1009D00084F835002068016821F001010160009869
:1009E000401C0090B84203D820680068C007F6D1C8
:1009F00084F8349084F83580E16C002910D001B07F
:100A00002046BDE8F04308470168C905D5D4016810
:100A100021F01001016084F8349084F83580CCE72F
:100A2000BDE8F883580000202DE9F041044600F0AD
:100A30007FF906465CB1002584F83450022084F822
:100A400035002068016821F0010101600DE00120FE
:100A5000BDE8F08100F06CF9801B052805D9202045
:100A60006065032084F83500F2E720680068C0075D
:100A7000F0D12268116820480140D4E901031843ED
:100A8000D4E903363343184363691843A369184311
:100A9000E3691843236A18430843616A042903D1B0
:100AA000D4E90B1319430843106020684069666A53
:100AB00020F0070130460E43012704280CD1A06A1C
:100AC0000643E06A40B12046FFF7E6FC20B1402033
:100AD000606584F83570BAE7206846612046FFF704
:100AE000C7FC94F85C203F2191408160656584F8E3
:100AF00035700020ACE700003F8010F02DE9F04198
:100B00000446866D90F83400002501280DD00120A0
:100B100084F8340094F835700020012F07D084F851
:100B2000340002252846BDE8F0810220FBE70227B9
:100B300084F8357060652046FFF7D8FC94F85C10A7
:100B40003F208840B0602068016841F016010160D4
:100B50002068416941F080014161206C20B120682A
:100B6000016841F0080101602068016841F001015D
:100B70000160D7E72DE9F84FDFF87CB100224FF094
:100B800001084FF0030A4FF00F090BF1040E00BFEC
:100B90000B6808FA02F42340A3426ED14D68022D7F
:100BA00001D0122D0ED1D50800EB850CDCF82050B9
:100BB0005607F70E09FA07F6B5430E69BE402E43F5
:100BC000CCF82060066855000F790AFA05FC07F09A
:100BD000030726EA0C06AF40374307604E68012E34
:100BE00005D0022E03D0112E01D0122E0ED1866810
:100BF000CF6826EA0C06AF40374387604668A643B5
:100C00000C79C4F30014944034434460C6688C6883
:100C100026EA0C06AC403443C4604C68E40065D559
:100C2000364C256845F480452560246822F003058C
:100C300004F480440094324C2E19D6F808489507E5
:100C40002F0F09FA07F5AC432E4DA84201D100251C
:100C500024E02D4DA84201D101251FE02B4DA842D3
:100C600001D102251AE02A4DA84201D1032515E041
:100C7000284DA84202D1042510E037E0264DA842B5
:100C800001D105250AE0254DA84201D1062505E040
:100C9000234DA84201D1072500E00825BD4025438A
:100CA000C6F80858DBF800405D464E689C43F603E2
:100CB00000D51C432C60DEF8004075464E689C430E
:100CC000B60300D51C432C600B4D08352C684E68CC
:100CD0009C43F60200D51C432C60074D0C352C6854
:100CE0004E689C43B60200D51C432C60521C102A4F
:100CF000FFF44EAFBDE8F88F003C0140443802409D
:100D000000300140000002400004024000080240A0
:100D1000000C024000100240001402400018024083
:100D2000001C02400AB1816170470904FBE7000022
:100D300001488068704700004C000020024881682C
:100D400002781144816070474C0000200B4810B5B8
:100D5000016841F400710160016841F48061016043
:100D6000016841F480710160032000F06FF80020F9
:100D700000F006F800F024F8002010BD003C02400E
:100D800070B50D4D04464FF47A712878B1FBF0F040
:100D90000A490968B1FBF0F000F0C2FA48B9102C1A
:100DA00007D200222146501E00F030F800206C606F
:100DB00070BD012070BD00004C00002058000020D4
:100DC0000A4808B5016841F480410160006800F4F8
:100DD000804000900548001F016841F0805101608B
:100DE000006800F08050009008BD000044380240C8
:100DF000002809DB00F01F0201219140400980001A
:100E000000F1E020C0F8001170470000F0B40E4B74
:100E10001B680C46C3F30223C3F10705042D00D958
:100E20000425191D072901D2002300E0DB1E01263D
:100E300006FA05F1491E214099409E40761E164053
:100E40003143F0BC00F0FCBD0CED00E0064900F0C1
:100E5000070208684FF6FF03184040EA0220034AE1
:100E600010430860704700000CED00E00000FA0538
:100E70002DE9F0470E46050065D0DFF81481D8F85B
:100E80000000F7B200F00F00B04207D288F80070FF
:100E9000D8F8000000F00F00B04254D128683D4C53
:100EA000810712D5400703D5206840F4E050206048
:100EB0002878000703D5206840F46040206020684F
:100EC000A96820F0F000084320602878C0072DD0E2
:100ED000304968680839012812D0022813D0032845
:100EE00011D00968890700292DDA216821F0030152
:100EF00001432160FFF71CFF814641F2883A0EE072
:100F000009688903EFE709688901ECE7FFF710FF3B
:100F1000A0EB0901514502D90320BDE8F087206804
:100F2000696800F00C00B0EB810FEFD1D8F8001029
:100F3000404601F00F01B14207D90770006800F088
:100F40000F00B04201D00120E7E72878400705D51F
:100F50002068E96820F4E050084320602878000702
:100F600006D52068296920F4604040EAC10020606D
:100F700000F016F82168084AC1F30311515CC8401B
:100F8000064908600020FFF7FBFE0020C5E70000CF
:100F9000003C0240083802401C1C00085800002099
:100FA000154810B5006810F00C02144813D014490D
:100FB000042A0FD0082A0ED10F4C241F2268236860
:100FC00002F03F025B0207D52068C0F38810A0FB47
:100FD000010106E0084610BD2168C1F38811A1FB9C
:100FE00000010023FFF7ECF82168C1F30141491C1F
:100FF0004900B0FBF1F010BD083802400024F400B5
:1010000040787D012DE9F84F050076D02878DFF88B
:10101000F8B2BE4CC00749D0DBF800105846C1F307
:101020008101012908D00068C0F3810002280AD19B
:10103000201D0068400206D52068800336D5686808
:101040000028E2D032E06868B0F5803F10D0B0F5FB
:10105000A02F206810D020F480302060206820F479
:10106000802020606868A0B1FFF762FE06460CE0B1
:10107000206840F48030F4E740F480202060F7E7F7
:10108000FFF756FE801B642873D820688003F7D5CD
:101090000CE0FFF74DFE064605E000BFFFF748FEF7
:1010A000801B6428F0D820688003F7D42878DFF804
:1010B000608280074FF000093ED5DBF800105846EB
:1010C00011F00C0F09D00068C0F3810002280BD189
:1010D0008D48001F0068400206D42068800715D59F
:1010E000E868012809D111E0E868B8B10120C8F822
:1010F0000000FFF71DFE064605E002E1FFF718FEBF
:10110000801B0228C0D820688007F7D5206829698D
:1011100020F0F80040EAC10020600DE0C8F800901F
:10112000FFF706FE064604E0FFF702FE801B0228DA
:101130001FD820688007F7D42878000722D5724E80
:10114000744869696C3671B101210160FFF7F0FDE7
:10115000074604E0FFF7ECFDC01B022809D8306801
:101160008007F7D50EE0C0F80090FFF7E1FD0746D5
:1011700005E083E0FFF7DCFDC01B02287ED8306865
:101180008007F7D42878400768D5DFF87CA10027CE
:101190000AF1380ADAF80000C0000BD4DAF80010BF
:1011A00041F08051CAF80010DAF80000012700F081
:1011B00080500090584E3068C00510D4306840F41C
:1011C00080703060FFF7B4FD009005E0FFF7B0FDE0
:1011D0000099401A022851D83068C005F6D54A4E09
:1011E000A868683601280FD00528306810D020F094
:1011F00001003060306820F004003060A868B8B1A9
:10120000FFF796FD00900FE0306840F00100F4E732
:1012100040F004003060F7E7FFF78AFD0099411ABB
:1012200041F28830814264D830688007F4D50EE0FE
:10123000FFF77EFD009007E0FFF77AFD0099411A65
:1012400041F28830814254D830688007F4D42FB1FD
:10125000DAF8001021F08051CAF80010A869C0B374
:10126000DBF80010C1F3810102294AD00228484668
:1012700007D0C8F86000FFF75BFD00E039E00546E5
:101280003AE04746C8F86000FFF752FD064604E022
:10129000FFF74EFD801B02282BD820688001F7D471
:1012A000D5E907010843A96A1C4A490802EB014134
:1012B0006A6A41EA8211084395F82C1040EA0161FC
:1012C0001148001F016001203866FFF731FD054617
:1012D00005E014E0FFF72CFD401B022809D8206828
:1012E0008001F7D50BE000BFFFF722FD401B02286D
:1012F00002D90320BDE8F88F20688001F4D40020D3
:10130000F8E70120F6E70000083802400038024004
:1013100000004742800E4742007000400000FFFF7F
:1013200010B5401EB0F1807F01D3012010BD4FF0F9
:10133000E02460610F21601700F082FB0020A061B3
:1013400007202061002010BD7047704770B590F8ED
:101350003C20012A19D0012400F83C4F022242709F
:1013600050F83C3C5A689D6822F070060A6849684B
:10137000324325F0800529435A6050F83C2C916097
:10138000447000210170084670BD022070BD10B588
:10139000040003D094F83D0010B107E0012010BD17
:1013A000002084F83C00204600F00CF8022084F86D
:1013B0003D00211D206800F0A9FA012084F83D00BD
:1013C000002010BD08B500680B49884212D10B48B7
:1013D000016841F0020101600068002200F0020093
:1013E000009011461D20FFF711FDBDE808401D20AB
:1013F000FFF7FEBC08BD000000040040403802407A
:101400000168CA6842F00102CA600068816801F0A0
:101410000701062903D0016841F0010101600020A5
:10142000704770B5044690F83C00012817D001259C
:1014300084F83C50022084F83D002068826822F045
:10144000770222F47F4282600868502830D00DDC99
:1014500020284DD005DC98B310283BD148E002206D
:1014600070BD302844D0402834D139E0602828D0DD
:10147000702806D0B0F5805F2CD0B0F5005F29D180
:101480000AE0CB68D1E90121206800F0A3FA2068C6
:10149000816841F0770109E0CB68D1E9012120683A
:1014A00000F098FA2068816841F48041816011E081
:1014B000CA684968206800F09FFA5021206807E058
:1014C00016E0CA684968206800F0A7FA6021206821
:1014D00000F08AFA84F83D50002084F83C0070BD8A
:1014E000CA684968206800F087FA40212068EFE761
:1014F000226801461046EBE7704770B50446006865
:1015000001694FF00005C943890715D4C168C94373
:10151000890711D4E91E01610120207720688069C4
:101520008007204602D0FFF7E7FF04E000F098F8BC
:10153000204600F096F8257720680169C9434907DD
:1015400017D4C168C943490713D46FF0040101617E
:10155000022020772068806910F4407F204602D066
:10156000FFF7CAFF04E000F07BF8204600F079F8AE
:10157000257720680169C943090716D4C168C943A2
:10158000090712D46FF00801016104202077206858
:10159000C0698007204602D0FFF7AEFF04E000F0EC
:1015A0005FF8204600F05DF8257720680169C9439F
:1015B000C90617D4C168C943C90613D46FF0100116
:1015C0000161082020772068C06910F4407F204620
:1015D00002D0FFF791FF04E000F042F8204600F04F
:1015E00040F8257720680169C943C90708D1C16857
:1015F000C943C90704D1891E0161204600F032F8B1
:1016000020680169C943090609D4C168C9430906AC
:1016100005D46FF0800101612046FFF795FE206838
:101620000169C943490609D4C168C943490605D4BB
:101630006FF040010161204600F015F82068016953
:10164000C94389060BD4C168C943890607D46FF022
:10165000200101612046BDE87040FFF776BE70BDF5
:101660007047704770477047FEE700007FB5002461
:1016700015480094019402941249039401604FF4B8
:101680008031C0E9011401250461057680F820400D
:101690000E49C0E90A14C561C46080F83050456144
:1016A000FEF7E3FF08B1FEF736FF0620CDE900059F
:1016B000694602940448FEF72FFF002801D0FEF788
:1016C0002AFF7FBD00200140EC0100200100000F37
:1016D000094808B5016841F48001016000680022F2
:1016E00000F48000009001213820FFF78FFBBDE857
:1016F00008403820FFF77CBB3038024030B587B057
:1017000014216846FEF794FD11480024016841F059
:1017100080010160016801F080010591016841F0DC
:101720000101016000680B4D00F0010005902246A8
:1017300030212846FFF7F6FA302000900120CDE94D
:101740000104694628460394FFF714FA07B030BD38
:10175000303802400000024010B586B00024164820
:101760000094019402940394049412490594016036
:101770004A21C0E901140921C0E903148461FFF77B
:1017800006FE08B1FEF7C7FE4FF480500090694690
:101790000948FFF746FE08B1FEF7BDFE049404A910
:1017A00005480594FFF7D2FD002801D0FEF7B3FEEF
:1017B00006B010BD0004004094020020FEE7704710
:1017C00070477047FFF7BABA30B593B0302168461A
:1017D000FEF72EFD14210CA8FEF72AFD194800255E
:1017E000016841F080510160006800F08050119064
:1017F0001548016841F4804101600068022400F44A
:101800008040119001200090000401908001CDE9FA
:10181000064010200890C020CDE9090404200B9058
:101820006846FFF7EFFB0CA90F2081E831004FF469
:10183000A0500F90E002109004210CA8FFF718FBB5
:1018400013B030BD403802400070004010480168BD
:1018500041F4700101600F48016841F0010101602D
:101860000C4A00210832116002680B4B1A400260DA
:10187000031D0A4A1A60026822F4802202600548A9
:101880000C3001600249580680390860704700003A
:1018900088ED00E000380240FFFFF6FE1030002423
:1018A000164910B548680A22401CB0FBF2F302FB4F
:1018B0001300486018B90A78C2F101020A70104A90
:1018C000104C1268824201D8002211E0087870B1F1
:1018D000002210212046FFF725FA01222021204670
:1018E000FFF720FABDE810400748FFF706BE0122C7
:1018F00010212046FFF716FA0022EFE70C00002027
:10190000000000200000024094020020F0B50268B0
:10191000254C264D264E274F274B4FF0804CA0429A
:1019200009D0604507D0A84205D0B04203D0B842E4
:1019300001D0984204D122F0700E4A6842EA0E02A9
:10194000A0421BD0604519D0A84217D0B04215D094
:10195000B84213D0984211D0184DA8420ED0184D5D
:10196000A8420BD0174DA84208D0174DA84205D069
:10197000164DA84202D0164DA84203D122F440755C
:10198000CA682A434D6922F080022A4302608A68AD
:10199000C2620A688262A04201D0984201D10969FC
:1019A000016301214161F0BD0000014000040040DD
:1019B00000080040000C00400004014000400140CD
:1019C000004401400048014000180040001C004055
:1019D0000020004010B5846842EA032224F47F44CA
:1019E0000A432243826010BD826822F070020A43DB
:1019F00042F007018160704710B5036A046A24F061
:101A000001040462846924F0F00444EA021423F01F
:101A10000A020A438461026210BD10B5036A23F012
:101A2000100303628369046A23F4704343EA0232B9
:101A300024F0A00343EA01118261016210BDFEE7B8
:101A40000907090E002804DB00F1E02080F80014EB
:101A5000704700F00F0000F1E02080F8141D70477F
:101A600002E008C8121F08C1002AFAD17047704767
:101A7000002001E001C1121F002AFBD170470000C5
:101A8000FFF764F9FFF7A0FEFFF738FEFFF720FE2F
:101A9000FFF7ECFDFFF760FE1648FFF7B1FC164CB0
:101AA00001200246206015491548FEF755FE9FEDBE
:101AB000170AB2EE042ADFED131A9FED131AF0EEA7
:101AC000400A00F08DF80D4F5FF00A06D4ED010AD0
:101AD00097ED000AF8EE600AB8EE400A00F018F838
:101AE000BDEEC00A354684ED000AA6606D1EFDD22B
:101AF000A560EBE794020020000000205C000020BD
:101B0000EC0100200000C84200000000CDCCCC3D1C
:101B1000314830EEC00ADFED311A0178A1B1002161
:101B2000017080ED040A80ED060AC0ED0D1A00BFB9
:101B300090ED0D0AB5EEC00AF1EE10FA01D2C0ED3B
:101B40000D1A90ED0D0A704780ED040AD0ED050ADC
:101B5000214930EE801A80ED051A90ED082AD1ED6A
:101B6000090AB4EEC21AF1EE10FA02DDC0ED050A60
:101B700008E0B1EE422AB4EEC21AF1EE10FA01D238
:101B800080ED052A90ED061A70EE412AC0ED072A75
:101B900090ED011A20EE012A80ED0A2A90ED051A37
:101BA00090ED023A21EE031A80ED0B1A90ED033A04
:101BB00032EE011A62EE832AC0ED0C2A31EE221AAF
:101BC00080ED0D1AB4EEE01AF1EE10FA01DDC0ED71
:101BD0000D0A80ED060AABE71400002000000000AB
:101BE0000A48011DC0ED081A80ED092A81EC030A9C
:101BF00001219FED070A80ED040A80ED050A80EDC2
:101C0000070A80ED060A01707047000014000020EA
:101C1000000000000006101600061016000000006C
:101C20000000000001020304060708094C1C00081C
:101C3000000000205C000000601A0008A81C0008DA
:101C40005C0000207C060000701A00080000000004
:101C500098080000000000000000000000000000E4
:101C60000000000000000000000000000000000074
:101C70000000000000000000000000000000000064
:101C80000000000000000000000000000000000054
:101C90000000000000000000010000001000000033
:081CA000000000000024F40024
:040000050800018965
:00000001FF
